:10000000D2C200000C94F0100C94C5100C949A10FD
:100010000C946F100C9444100C9419100C94EE0F67
:100020000C94C30FF1C20000EFC20000EDC200004B
:10003000EBC20000E9C20000E7C20000E5C2000018
:10004000E3C20000E1C20000DFC20000DDC2000028
:10005000DBC20000D9C20000D7C200000C942125E9
:10006000D3C200000C940F120C94E611CDC2000014
:10007000CBC20000C9C20000C7C20000C5C2000058
:10008000C3C20000C1C20000BFC20000BDC2000068
:10009000BBC20000B9C20000B7C200000C94272107
:1000A000B3C20000B1C20000AFC20000ADC2000088
:1000B000ABC20000A9C20000A7C20000A5C2000098
:1000C000A3C20000A1C200009FC200009DC20000A8
:1000D0009BC2000099C2000097C2000095C20000B8
:1000E00093C20000D70CD90CCF0CD10CD30CD50C7B
:1000F000DB0CDD0C0919F618F818FA18FC18FE18B4
:1001000000190219A51BAD1B851B8D1B951B9D1B83
:10011000B51BBD1B41244424332437243D247B24B8
:1001200048244C24522456245A24602464246824ED
:100130007B246E2472247624526571756573742055
:10014000444843502E2E2E005265717565737420FD
:100150004448435000436F6E6E65637465642100CC
:10016000436F6E6E65637465642100436F6E6E65E8
:100170006374204661696C656421004661696C6541
:10018000642100436F6E6E656374696E6720746FDF
:10019000000A417474656D7074696E6720746F2015
:1001A000636F6E6E65637420746F2000556E6162BC
:1001B0006C6520746F20696E697469616C69736520
:1001C0002074686520434333303030212043686514
:1001D000636B20796F757220776972696E673F0073
:1001E0000A496E697469616C6973696E6720746825
:1001F0006520434333303030202E2E2E0048656C6E
:100200006C6F2C2043433330303000537461727470
:10021000696E672E2E2E00496E697469616C697A69
:10022000696E67006572726F7200207C20004F4B10
:100230000D0A000D0A4177616974696E6720726565
:1002400073706F6E73652E2E2E00314E3134E300C5
:1002500006EC52657175657374696E672074696D1B
:10026000652E2E2E00636F6E6E6563746564210DBE
:100270000A49737375696E67207265717565737469
:100280002E2E2E00436F6E6E656374696E67204E6E
:1002900054502E2E2E000D0A417474656D707469D1
:1002A0006E6720636F6E6E656374696F6E2E2E2E9F
:1002B000004C6F636174696E672074696D652073AB
:1002C00065727665722E2E2E004C6F636174696EB6
:1002D00067204E54502E2E2E00207C200045525276
:1002E0004F523A20556E6578706563746564206E70
:1002F000756D626572206F66206279746573207215
:1003000065636569766564202853656E7365506919
:100310006E56616C7565293A20004F464600204FA5
:100320004E004D544E3A0020200030003A00504D0F
:1003300000414D0030003A003000207C2000207C3D
:100340002000207C2000207C2000207C20003A001F
:10035000207C200052656D6F74652053656E736F4D
:100360007220464952494E472121004C4F43414C8F
:100370002053656E736F7220464952494E472121C2
:100380000000002200250028002B002E0031003440
:100390000002010000050108010B010000200023FC
:1003A00000260029002C002F00320000010000036D
:1003B000010601090100000A0B02090C0D0E0807D5
:1003C0000304010000000000000000000000000025
:1003D000000000000000000000000000000000001D
:1003E00000121110000000000000000000000000DA
:1003F00000000000000000000000000000210024B8
:100400000027002A002D0030003300010100000405
:100410000107010A010102102020080810204010E5
:1004200020408002010201080402010102040810B8
:1004300020408080402010080402018004020180D6
:1004400040201008040201080402010102040810FF
:1004500020408001020408102040800505050507A2
:100460000508080808020202020A0A08080404042F
:10047000040101010101010101030303030303035B
:1004800003040707070C0C0C0C0C0C0C0C020202EA
:100490000206060606060606060B0B0B0B0B0B0BDD
:1004A0000B0A444E53736572763A20000A4448435F
:1004B000507372763A20000A476174657761793A21
:1004C00020000A4E65746D61736B3A20000A495032
:1004D00020416464723A2000556E61626C6520743C
:1004E0006F2072657472696576652074686520494D
:1004F000502041646472657373210D0A0052657166
:10050000756573742053656E742121000D0A0D0A00
:10051000000D0A436F6E74656E742D547970653AE0
:1005200020746578742F706C61696E3B63686172CA
:100530007365743D5554462D380D0A0D0A000D0A99
:10054000436F6E74656E742D4C656E6774683A20E7
:10055000002F73746174652F20485454502F312E2E
:10056000310D0A6B6565702D616C6976650D0A4801
:100570006F73743A20002F6C69676874732F005092
:100580005554202F6170692F00436F6E6E65637440
:1005900065640050555420436F6E6E656374696ED8
:1005A0006700592D402E11241FBECFEFD1E2DEBFD0
:1005B000CDBF00E00CBF13E0A0E0B2E0EAEAF1E654
:1005C00000E00BBF02C007900D92A837B107D9F722
:1005D00027E0A8E7B3E001C01D92AE35B207E1F70E
:1005E00012E0C2EDD2E000E006C021970109802FA1
:1005F000FE010E947A2EC13DD10780E00807A9F7CD
:100600000E946B250C94C430FBCC0895DC01ED9165
:10061000FC910488F589E02D199591E0811101C0C4
:1006200090E0892F0895CF92DF92EF92FF920F937F
:100630001F93FB018A0120E030E0DC01A15BBF4F8A
:100640006D917D918D919C91C12CD12C7601AF0142
:100650000E94ED161F910F91FF90EF90DF90CF90C9
:1006600008958F929F92AF92BF92CF92DF92EF92B6
:10067000FF920F931F93CF93DF93CDB7DEB72C97E5
:100680000FB6F894DEBF0FBECDBFFC01E15BFF4F9C
:1006900080819181A281B381B7FD5FC032972081B3
:1006A00031811216130654F43197408150E04217FD
:1006B000530724F4C901841B950B51C019861A866F
:1006C0001B861C868C019D0145E035952795179565
:1006D00007954A95D1F7000F111F000F111FE1E098
:1006E000F0E0EC0FFD1FE00FF11F4C015D012FE169
:1006F00082229924AA24BB24C12CD12C7601C39434
:1007000004C0CC0CDD1CEE1CFF1C8A94D2F7C08602
:10071000D186E286F38619821A821B821C8208E83F
:1007200013E120E030E00D831E832F833887BC0166
:10073000CD016F5F7F4F8F4F9F4F9E012F5F3F4FC8
:10074000AE01475F5F4F0E94301631E020E0019715
:1007500009F030E0832F922F02C080E090E02C96C9
:100760000FB6F894DEBF0FBECDBFDF91CF911F91C2
:100770000F91FF90EF90DF90CF90BF90AF909F9040
:100780008F900895FA01603830E87307810591056C
:1007900021F430918F05316009C0613030E8730772
:1007A0008105910531F430918F05326030938F05CA
:1007B00021C0623030E873078105910531F4209142
:1007C0008F05297F20938F0527C0603130E873079C
:1007D0008105910521F480918F05846008C06939F5
:1007E00071058105910531F480918F0588608093B2
:1007F0008F050895603430E873078105910561F431
:10080000809130048F5F80933004422F50E0BF010D
:100810008CE194E00C947E2F611578488105910558
:1008200041F4E081E03228F4F0E0E450FC4F81E054
:100830008083089580913C04882361F09FB7F894E9
:1008400020913C0480913104213019F48DBB9FBF6D
:1008500008958FBF089520913C04222399F04FB74B
:10086000F89420913C04213059F42DB320933104A5
:100870003DB320913B04209523232DBB4FBF02C0E5
:10088000409331048CBD9DBD0895FC0113821282FA
:1008900088EE93E0A0E0B0E084839583A683B783DD
:1008A0008CE392E091838083E15BFF4F8FEF9FEFBA
:1008B000DC0180839183A283B3830895FC0140838C
:1008C000518362837383049608958F929F92AF92AF
:1008D000BF92CF92DF92EF92FF926830710581054F
:1008E0009105B0F5223031054105510588F5E1E06B
:1008F000F0E0062E02C0EE0FFF1F0A94E2F7E0952B
:10090000F0956F01FF0FEE08FF08809000029090B5
:100910000102A0900202B0900302C820D920EA2070
:10092000FB2049015A0104C0880C991CAA1CBB1C5D
:100930006A95D2F7D701C60188299929AA29BB2926
:100940008093000290930102A0930202B0930302ED
:10095000FF90EF90DF90CF90BF90AF909F908F90DF
:1009600008958F929F92AF92BF92CF92DF92EF92B3
:10097000FF920F931F93CF93DF938B01BA01E9018D
:1009800023E0F80125838683CE0102968783908732
:10099000C8010B96C93EF3E0DF07C0F4F801C18738
:1009A000D287AE010E947E2FBE016A5F7F4FC801D1
:1009B000DF91CF911F910F91FF90EF90DF90CF903B
:1009C000BF90AF909F908F900C945D1238EEF8011D
:1009D0003187228728EE33E0FA01DC0101900D9285
:1009E00021503040D9F7C85ED3406A01F8E1CF1AF0
:1009F000FCEFDF0A6EEE73E0C8010E945D12480151
:100A000027E0820E911C580135E0A30EB11C0E9414
:100A10004512C93E83E0D80738F0C85ED34088EE5F
:100A2000E82E83E0F82E03C07E01C0E0D0E0F8019C
:100A3000F682E582A701B601C4010E947E2FCE0C8A
:100A4000DF1CB7016E5F7F4FC5010E945D122097CA
:100A5000F1F6DF91CF911F910F91FF90EF90DF9012
:100A6000CF90BF90AF909F908F900895FB0121E0B1
:100A7000258386839783408750E0BA016C5F7F4F60
:100A8000CF010E945D1280E090E008959093570599
:100A900080935605CB010C94C51B2F923F924F9229
:100AA0005F926F927F928F929F92AF92BF92CF92FE
:100AB000DF92EF92FF920F931F93CF93DF93CDB707
:100AC000DEB7A6970FB6F894DEBF0FBECDBF4B01C1
:100AD0005C011A01280139019B016DA33EA30E940C
:100AE0001525698B7A8B8B8B9C8B81E090E0082C91
:100AF00002C0880F991F0A94E2F7AC01990F660BA8
:100B0000770B498F5A8F6B8F7C8F840185E0169508
:100B100007958A95E1F7F401EF71FF2741E050E076
:100B200060E070E0DB01CA0104C0880F991FAA1FB2
:100B3000BB1FEA95D2F78D8B9E8BAF8BB88F2DA103
:100B40003EA1A901032E000C660B770B4D8F5E8F23
:100B50006F8F78A3000F111F000F111F61E070E06D
:100B60006C0F7D1F060F171F045F1F4F2F5F3F4F36
:100B7000C901330FAA0BBB0B89A39AA3ABA3BCA3D8
:100B800080916E0590916F05A0917005B0917105EF
:100B9000892B8A2B8B2BC9F040916E0550916F05E4
:100BA0006091700570917105CA0150935907409387
:100BB000580710926E0510926F05109270051092F2
:100BC0007105009709F46EC0C5C02D8D3E8D4F8D07
:100BD00058A1283031054105510508F0B6C0809173
:100BE000000290910102A0910202B0910302498D8E
:100BF0005A8D6B8D7C8D84239523A623B723892B57
:100C00008A2B8B2B09F0A1C00E941525DC01CB019A
:100C100029893A894B895C89821B930BA40BB50BFC
:100C200081339547A105B10508F092C08091720506
:100C300090917305892B31F51D861E861F86188AB3
:100C40006D897E898F89988DD8016D937D938D9361
:100C50009C93139719821A821B821C8228E833E125
:100C600040E050E02D833E834F8358879E012F5FE5
:100C70003F4FAE01435F5F4F69A17AA18BA19CA159
:100C80000E9430168091720590917305892B09F4AA
:100C900077CF8091720590917305019790937305BA
:100CA0008093720580917A0590917B05A0917C05D7
:100CB000B0917D050196A11DB11D80937A05909399
:100CC0007B05A0937C05B0937D0500915C05109198
:100CD0005D05B501A401C8010A96F0DD4CE050E0C5
:100CE00060E070E0EBDDB301A201E8DDB701A60131
:100CF000E5DD9801265E3F4FF101CF01821993098E
:100D0000A0E0B0E084159505A605B7052CF4819107
:100D1000D9018D939D01F1CF82E0F801858381E8AF
:100D2000868380E18783C201409680879187B201E4
:100D30006B5E7F4FC8010E945D12BE016F5F7F4FE7
:100D400083E090E1A3DEC20105C08FEF9FEF02C0F8
:100D50008DEF9FEFA6960FB6F894DEBF0FBECDBF06
:100D6000DF91CF911F910F91FF90EF90DF90CF9087
:100D7000BF90AF909F908F907F906F905F904F90BB
:100D80003F902F900895CF92DF92EF92FF920F93B2
:100D90001F93FB0101900020E9F731978F01061B9B
:100DA000170B79F0AB0120E030E0FC01E15BFF4F75
:100DB0006081718182819381C12CD12C76016DDE9D
:100DC00002C080E090E01F910F91FF90EF90DF90C4
:100DD000CF9008954F925F926F927F928F929F92E1
:100DE000AF92BF92CF92DF92EF92FF920F931F9339
:100DF000CF93DF93CDB7DEB7A0970FB6F894DEBFE1
:100E00000FBECDBF4C013B01A12CB12C00E02C0149
:100E10008FE4480E511CF3018491882311F1E1E025
:100E2000F0E0EC0FFD1FE00FF11D80830F5F00323B
:100E300020F4EFEF6E1A7E0AEECFF201608171812D
:100E400082819381C12CD12C760100E210E020E058
:100E500030E0AE014F5F5F4F20DEA80EB91E00E00C
:100E6000E8CF002399F010E020E030E0F401E15BEE
:100E7000FF4F6081718182819381C12CD12C7601D9
:100E8000AE014F5F5F4F09DEA80EB91EC501A096E7
:100E90000FB6F894DEBF0FBECDBFDF91CF911F918B
:100EA0000F91FF90EF90DF90CF90BF90AF909F9009
:100EB0008F907F906F905F904F900895CF92DF92C8
:100EC000EF92FF920F931F93CF93DF931F92CDB7B3
:100ED000DEB76983FC01E15BFF4F60817181828134
:100EE0009381C12CD12C760101E010E020E030E0AC
:100EF000AE014F5F5F4FD1DD97FF02C080E090E011
:100F00000F90DF91CF911F910F91FF90EF90DF90A5
:100F1000CF900895CF92DF92EF92FF920F931F939D
:100F2000FB018A0120E030E0DC01A15BBF4F6D9145
:100F30007D918D919C91C12CD12C7601AF01ADDDBD
:100F40001F910F91FF90EF90DF90CF900895AF9297
:100F5000BF92CF92DF92EF92FF920F931F93CF93A6
:100F6000DF93CDB7DEB728970FB6F894DEBF0FBE7C
:100F7000CDBF5C017B016A018FEF9FEF9093590712
:100F800080935807673E710508F03FC000915C05EB
:100F900010915D0588E0D80119968C9319971A96DF
:100FA0001C921A971B961C921B971C961C92AB01C5
:100FB00060E070E0C8010D9681DCF50195012E0D11
:100FC0003F1DE217F30729F04191DC014D93CD015C
:100FD000F8CF48E04E0DB80180E190E147DDBE0159
:100FE0006F5F7F4F80E190E151DD89819A8190931D
:100FF0005907809358074D815E816F817885F6018E
:10100000408351836283738302C08FEF9FEF2896E2
:101010000FB6F894DEBF0FBECDBFDF91CF911F9109
:101020000F91FF90EF90DF90CF90BF90AF90089519
:10103000EF92FF920F931F93CF93DF93CDB7DEB75D
:101040002A970FB6F894DEBF0FBECDBF8C01CB013F
:101050007A011F82188619861A86FB0101900020EA
:10106000E9F73197BF01681B790BAE01495F5F4F0C
:101070006EDF4F81588569857A8541155105610577
:101080007105B9F0892BA9F0D801ED91FC91048488
:10109000F585E02D86EE92E09A8389834B835C830D
:1010A0006D837E83A701BE016F5F7F4FC8011995D5
:1010B00002C080E090E02A960FB6F894DEBF0FBE23
:1010C000CDBFDF91CF911F910F91FF90EF900895C9
:1010D000CF92DF92EF92FF920F931F93CF93DF9304
:1010E00000D01F92CDB7DEB76B017C018FEF9FEF71
:1010F000DC0189839A83AB83BC8300915C051091EA
:101100005D05B701A601C8010996D8DB44E0B80126
:101110008BE090E1ABDCBE016F5F7F4F8BE090E135
:10112000B5DC09811A812B813C811093590700930A
:10113000580788E0C816D104E104F10488F581E07D
:1011400090E00C2C02C0880F991F0A94E2F780955A
:101150009095092E000CAA0BBB0B409100025091F8
:101160000102609102027091030284239523A62359
:10117000B72341E050E060E070E004C0440F551F29
:10118000661F771FCA94D2F7842B952BA62BB72BFB
:101190008093000290930102A0930202B093030295
:1011A000C901B8010F900F900F900F90DF91CF9170
:1011B0001F910F91FF90EF90DF90CF9008950F93C4
:1011C0001F93CF93DF93EC01C15BDF4F688179817F
:1011D0008A819B817DDF0FEF1FEF980108831983C0
:1011E0002A833B83DF91CF911F910F9108954F92F6
:1011F0005F926F927F928F929F92AF92BF92CF92A7
:10120000DF92EF92FF920F931F93CF93DF93EC0146
:101210004C012DE4820E911C5C018CE4A80EB11CE3
:101220002E01ECE04E0E511C3E01FFE46F0E711CCE
:10123000F4012081318112161306F4F00E94451248
:10124000F3016081718182819381C12CD12C76015F
:1012500000E410E020E030E0A2010E94ED16F4016D
:1012600091838083C99629F4CE01A9DF80E090E0C4
:101270000DC0F5011082DCCFF501808190E02817C8
:101280003907E1F2C80FD91F8C8590E0DF91CF912B
:101290001F910F91FF90EF90DF90CF90BF90AF9094
:1012A0009F908F907F906F905F904F9008954F9296
:1012B0005F926F927F928F929F92AF92BF92CF92E6
:1012C000DF92EF92FF920F931F93CF93DF93EC0186
:1012D0004C012DE4820E911C5C018CE4A80EB11C23
:1012E0002E01ECE04E0E511C3E01FFE46F0E711C0E
:1012F000F4014081518114161506F4F00E94451244
:10130000F3016081718182819381C12CD12C76019E
:1013100000E410E020E030E0A2010E94ED16F401AC
:1013200091838083C99629F4CE0149DF80E090E063
:1013300010C0F5011082DCCFF5019081292F30E03B
:1013400042175307D9F2C20FD31F8C859F5F90833A
:1013500090E0DF91CF911F910F91FF90EF90DF9080
:10136000CF90BF90AF909F908F907F906F905F9045
:101370004F90089524CFCF93DF93EC01C15BDF4FF3
:10138000488159816A817B8177FD22C0DC01ED9122
:10139000FC910480F581E02D1995892B51F4688129
:1013A00079818A819B81FB01E450FC4F20812111CE
:1013B00002C081E00EC08CDEE881F981E450FC4F70
:1013C00010828FEF9FEFDC0188839983AA83BB8310
:1013D00080E0DF91CF9108958F929F92AF92BF925C
:1013E000CF92DF92EF92FF920F931F93CF93DF93F1
:1013F000CDB7DEB760970FB6F894DEBF0FBECDBF96
:101400008C015B01942E852EFC01E35BFF4F118262
:1014100010823197108226E030E040E050E061E039
:1014200070E080E090E00E94A1176B017C016F3FAB
:101430002FEF72078207920791F1FB01E450FC4FF6
:101440001082AE014F5F5F4F80E1FA0111928A95E1
:10145000E9F782E090E09A8389838B829C82F50190
:1014600082819381248135813D832E839F83888768
:10147000C701B6010E9451176F3F7F4F8F4F9F4F9B
:1014800021F4C701B60124DE0AC0F801E15BFF4F79
:10149000C082D182E282F38281E090E002C080E0EB
:1014A00090E060960FB6F894DEBF0FBECDBFDF911F
:1014B000CF911F910F91FF90EF90DF90CF90BF9051
:1014C000AF909F908F9008950F931F93FC01E60FAC
:1014D000F71F438150E060E070E0342F222711278E
:1014E00000279281492F50E060E070E0BA01552753
:1014F0004427400F511F621F731F8081480F511DE9
:10150000611D711D818190E0A0E0B0E0BA2FA92F8C
:10151000982F88278A019B01080F191F2A1F3B1F3C
:10152000C901B8011F910F910895FC01E60FF71F43
:101530009181892F90E0982F88272081820F911D1B
:1015400008958F929F92AF92BF92CF92DF92EF92C7
:10155000FF920F931F93CF93DF93CDB7DEB76597BD
:101560000FB6F894DEBF0FBECDBF8C0161E070E016
:10157000DCDF6C01E12CF12C96FF67C0811521E4C2
:10158000920709F062C065E070E0C801CEDF4C014F
:10159000095F1F4FA12CB12CC12CD12C7601A814AE
:1015A000B90471F062E070E0C801BFDFC80ED91E57
:1015B000E11CF11C0C5F1F4F8FEFA81AB80AEFCF88
:1015C00080917205909173058C0D9D1D909373050C
:1015D0008093720580917E0590917F05A091800592
:1015E000B0918105C80ED91EEA1EFB1EC0927E0571
:1015F000D0927F05E0928005F092810540917E05B2
:1016000050917F05609180057091810580917A05E8
:1016100090917B05A0917C05B0917D0548175907F5
:101620006A077B0709F01CC180918205882309F4B1
:1016300017C1E0916405F091650520E040E050E0BD
:1016400069E970E080E090E0CEC097FFCEC08034C2
:10165000E0E89E0709F46DC0C0F4843020E89207EA
:1016600009F4B1C030F481509048029708F00EC1DF
:10167000AAC08031904809F009C1D8011596FE0131
:101680003196CE010596AF011AC0811524E8920764
:1016900009F499C050F48038F0E89F0709F493C02A
:1016A0008115924809F48FC0F1C08115E8E89E07C2
:1016B00009F479C08115994809F485C0E7C02D91D6
:1016C0002193E817F907D9F7F80181858D83828581
:1016D0008E8383858F83848588873D96DE01199666
:1016E000C801419621912D93E817F907D9F7DE013A
:1016F0001D96C801459621912D93E817F907D9F752
:10170000DE015196C801499621912D93E817F907FA
:10171000D9F7F80184818D8B8091640590916505DE
:10172000892B09F49DC0E0916405F091650525E1E0
:1017300058C00B5F1F4F60E070E0C801C5DE6983D1
:101740007A838B839C8364E070E0C801BDDE6D8387
:101750007E838F83988768E070E0C801B5DE698773
:101760007A878B879C876CE070E0C801ADDE6D875F
:101770007E878F87988B60E170E0C801A5DE698B5A
:101780007A8B8B8B9C8B8091640590916505892B5E
:1017900009F466C0E0916405F091650524E1AE01AD
:1017A0004F5F5F4F1EC08091640590916505892B46
:1017B00009F456C0E0916405F0916505A8014B5FFE
:1017C0005F4F21E00EC08091640590916505892BE3
:1017D00009F446C0E0916405F091650520E040E021
:1017E00050E0C701B60119953BC0F3E0CF16F0E118
:1017F000DF06E104F10421F08E5090410297A8F534
:10180000780125E0E20EF11C64E070E0C7015CDEC7
:10181000673C7F4F8F4F9F4FC9F5F801848190E05F
:10182000A0E0B0E080936E0590936F05A0937005E3
:10183000B093710560E070E0C70146DE4B015C01CA
:1018400064E070E0C70140DE673C7F4F8F4F9F4FE1
:1018500039F421E030E040E050E0C501B40135D872
:1018600061E070E080E090E014C0809156059091B6
:101870005705A0E0B0E0C816D906EA06FB0631F02D
:10188000C11420E1D206E104F10451F760E070E0F8
:10189000CB0165960FB6F894DEBF0FBECDBFDF91CA
:1018A000CF911F910F91FF90EF90DF90CF90BF905D
:1018B000AF909F908F90089521E030E030935905CC
:1018C0002093580590935B0580935A0580915805A5
:1018D00090915905892B99F080915A0590915B055B
:1018E000FC012081243059F42CDE61307105810522
:1018F000910529F41092590510925805D4C5089500
:10190000CF93DF93EC0160E08E810E94281861E0A4
:101910008E810E94281860E08E810E9428188BE832
:1019200091E00197F1F7DF91CF910895CF92DF9287
:10193000EF92FF920F931F93CF93DF937C016C0183
:1019400087E0C80ED11CC0E0D0E0062F10E0B8013F
:101950000C2E02C0759567950A94E2F76170F60146
:1019600081916F010E9428182196C430D10579F722
:10197000C701DF91CF911F910F91FF90EF90DF9002
:10198000CF90BECF982F482F50E048305105B0F48B
:10199000FA018827EE58FF4F8F4F0C947A2EE89863
:1019A0000DC0E9980BC0EA9809C0EB9807C0EC9805
:1019B00005C0ED9803C0EE9801C0EF98E92FF0E064
:1019C000EE0FFF1FEC5FFD4F89EE9CE0918380835B
:1019D00008950895CF92DF92EF92FF920F931F9395
:1019E000CF93DF936C017A018B01C0E0D0E0CE157C
:1019F000DF0589F0D8016D918D01D601ED91FC9143
:101A00000190F081E02DC6011995892B11F47E011A
:101A100002C02196ECCFC701DF91CF911F910F91AA
:101A2000FF90EF90DF90CF900895FC01918D828D13
:101A3000981761F0828DDF01A80FB11D5D968C9122
:101A4000928D9F5F9F73928F90E008958FEF9FEF2D
:101A50000895FC01918D828D981731F0828DE80FE9
:101A6000F11D858D90E008958FEF9FEF0895FC01A3
:101A7000918D228D892F90E0805C9F4F821B910970
:101A80008F73992708958EEE95E0F1DF21E0892B81
:101A900009F420E0822F0895FC01848DDF01A80F56
:101AA000B11DA35ABF4F2C91848D90E001968F7386
:101AB0009927848FA689B7892C93A089B1898C91A5
:101AC00080648C93938D848D981306C00288F3896B
:101AD000E02D80818F7D80830895EF92FF920F9398
:101AE0001F93CF93DF93EC0181E0888F9B8D8C8DCA
:101AF000981305C0E889F989808185FD23C0F62EF9
:101B00000B8D10E00F5F1F4F0F731127E02E8C8D90
:101B1000E8120BC00FB607FCFACFE889F98980817B
:101B200085FFF5CFCE01B8DFF2CF8B8DFE01E80F38
:101B3000F11DE35AFF4FF0820B8FEA89FB89808108
:101B4000806207C0EE89FF896083E889F989808116
:101B50008064808381E090E0DF91CF911F910F91AD
:101B6000FF90EF900895CF93DF93EC01888D882349
:101B7000C1F0EA89FB89808185FD05C0A889B98902
:101B80008C9186FD0EC00FB607FCF5CF808185FFD6
:101B9000F2CFA889B9898C9185FFEDCFCE017CDF8A
:101BA000E8CFDF91CF91089580E090E0892B19F084
:101BB0006ADF811125C080E090E0892B41F080E050
:101BC00090E0892B21F00E94000081111CC080E070
:101BD00090E0892B41F080E090E0892B21F00E9479
:101BE0000000811113C080E090E0892BA1F080E01B
:101BF00090E0892B81F00E94000081110AC00895B5
:101C00000E940000D8CF0E940000E1CF0E94000097
:101C1000EACF0C9400000895FC0110821182128218
:101C2000138280E090E00895FC01108211821282FC
:101C3000138280E090E00895FC01108211821282EC
:101C4000138280E090E00895109232048091910513
:101C5000883008F497CE08952CB5237F24602CBDDE
:101C6000680F791F23E08617970751F02EBD0000FB
:101C70000DB407FEFDCF3EB5FC013193CF01F3CF8C
:101C80000895680F791F8617970751F0FC0121917D
:101C9000CF012EBD00000DB407FEFDCF2EB5F3CF52
:101CA00008950E947A2F809193050E94FF17BC012E
:101CB000990F880B990B0895882311F061E001C0FA
:101CC00060E0809192050C9428180F931F93CF9396
:101CD000DF9381E08093330480914704909148041E
:101CE000A0914904B0914A040097A105B10569F497
:101CF00081E090E0A0E0B0E0809347049093480436
:101D0000A0934904B0934A04EDC082309105A10527
:101D1000B10509F0BAC086E090E0A0E0B0E08093A1
:101D2000470490934804A0934904B0934A048CB5A7
:101D3000809340048DB5817080933F0480913E0470
:101D40008CBD80913D04882319F08DB5816002C05F
:101D50008DB58E7F8DBD84E591E00E942B0460E0FF
:101D6000809194050E9428186AE070E080914D04EB
:101D700090914E0471DF88E090E0A0E0B0E08093A5
:101D8000470490934804A0934904B0934A04C09137
:101D90004D04D0914E048D81823019F08430D1F001
:101DA0003BC063E070E0CE010596BFDB9C01BC0147
:101DB00080E090E020FD05C06F5F7F4F8F4F9F4F09
:101DC00005C0611571058105910531F1CE010A96B5
:101DD00043DF22C0088510E020E030E0C901B801EF
:101DE000615071098109910960FF02C0C901B80100
:101DF000611571058105910519F0CE010A962CDF58
:101E000088E090E0A0E0B0E080934704909348041D
:101E1000A0934904B0934A04109232048091910532
:101E2000883008F4AFDD61E0809194050E942818A5
:101E30000E941A04809140048CBD80913F04882345
:101E400019F08DB5816002C08DB58E7F8DBD8091FA
:101E50004D0490914E04FC01EE57FF4F20812E3D22
:101E600009F0FFCF42E050E060E070E040934704AB
:101E7000509348046093490470934A04E0914104EC
:101E8000F0914204059619952DC00397A105B1055F
:101E900049F5609143047091440480914B04909102
:101EA0004C04EFDE82E090E0A0E0B0E080934704D5
:101EB00090934804A0934904B0934A0461E0809150
:101EC00094050E9428180E941A04809140048CBD39
:101ED00080913F04882319F08DB5816002C08DB5D3
:101EE0008E7F8DBD10923304DF91CF911F910F91A2
:101EF000089581E08093320480919105883010F438
:101F00000C946F1B0895EF92FF920F931F93CF9342
:101F1000DF93EC017B018A0188819981009729F088
:101F20002A813B8124173507F8F4B8016F5F7F4F92
:101F30000E94962E009759F0998388831B830A8309
:101F40002C813D81232B81F4FC0110820DC08881FE
:101F50009981009711F00E942330198218821D8206
:101F60001C821B821A8207C01D830C83B7018881E3
:101F700099810E94872FCE01DF91CF911F910F9100
:101F8000FF90EF9008951F920F920FB60F921124B9
:101F90000BB60F922F933F934F935F936F937F9363
:101FA0008F939F93AF93BF93EF93FF93E0911202B0
:101FB000F09113021995FF91EF91BF91AF919F910D
:101FC0008F917F916F915F914F913F912F910F90E2
:101FD0000BBE0F900FBE0F901F9018951F920F927F
:101FE0000FB60F9211240BB60F922F933F934F937E
:101FF0005F936F937F938F939F93AF93BF93EF9371
:10200000FF93E0911002F09111021995FF91EF9169
:10201000BF91AF919F918F917F916F915F914F9100
:102020003F912F910F900BBE0F900FBE0F901F90FE
:1020300018951F920F920FB60F9211240BB60F92A4
:102040002F933F934F935F936F937F938F939F93C0
:10205000AF93BF93EF93FF93E0910602F0910702D5
:102060001995FF91EF91BF91AF919F918F917F91C2
:102070006F915F914F913F912F910F900BBE0F90F9
:102080000FBE0F901F9018951F920F920FB60F92D0
:1020900011240BB60F922F933F934F935F936F933F
:1020A0007F938F939F93AF93BF93EF93FF93E091B1
:1020B0000402F09105021995FF91EF91BF91AF9144
:1020C0009F918F917F916F915F914F913F912F9150
:1020D0000F900BBE0F900FBE0F901F9018951F9280
:1020E0000F920FB60F9211240BB60F922F933F93BE
:1020F0004F935F936F937F938F939F93AF93BF9310
:10210000EF93FF93E0910E02F0910F021995FF916A
:10211000EF91BF91AF919F918F917F916F915F915F
:102120004F913F912F910F900BBE0F900FBE0F90CC
:102130001F9018951F920F920FB60F9211240BB695
:102140000F922F933F934F935F936F937F938F9350
:102150009F93AF93BF93EF93FF93E0910C02F091A5
:102160000D021995FF91EF91BF91AF919F918F91C2
:102170007F916F915F914F913F912F910F900BBE87
:102180000F900FBE0F901F9018951F920F920FB6D1
:102190000F9211240BB60F922F933F934F935F939F
:1021A0006F937F938F939F93AF93BF93EF93FF931F
:1021B000E0910A02F0910B021995FF91EF91BF9106
:1021C000AF919F918F917F916F915F914F913F91CF
:1021D0002F910F900BBE0F900FBE0F901F90189570
:1021E0001F920F920FB60F9211240BB60F922F93DE
:1021F0003F934F935F936F937F938F939F93AF938F
:10220000BF93EF93FF93E0910802F09109021995B3
:10221000FF91EF91BF91AF919F918F917F916F91BE
:102220005F914F913F912F910F900BBE0F900FBE7A
:102230000F901F901895DC01ED91FC910190F081B9
:10224000E02D1994EF92FF920F931F93CF93DF939A
:102250008C017B01C0E0D0E0F701EC0FFD1F649121
:10226000662361F0D801ED91FC910190F081E02DA1
:10227000C8011995892B11F02196EECFCE01DF917F
:10228000CF911F910F91FF90EF9008956115710507
:1022900079F0FB0101900020E9F73197AF01461B6F
:1022A000570BDC01ED91FC910280F381E02D199434
:1022B00080E090E008954F925F926F927F92EF924C
:1022C000FF920F931F93CF93DF93CDB7DEB7A19704
:1022D0000FB6F894DEBF0FBECDBF7C01FA01CB0173
:1022E00019A2223008F42AE08E010F5D1F4F422E02
:1022F000512C612C712CBF01A30192010E94582E18
:10230000F901CA01015011096A3014F4605D01C07D
:10231000695CD8016C93232B242B252B61F7B80122
:10232000C701B4DFA1960FB6F894DEBF0FBECDBFD4
:10233000DF91CF911F910F91FF90EF907F906F9061
:102340005F904F9008958F929F92AF92BF92CF92DD
:10235000DF92EF92FF920F931F93CF93DF937C0155
:102360008B016C0182E0C80ED11C4701E5E08E0EA6
:10237000911CC0E0D0E0F60141916F0150E060E0B7
:1023800070E02AE0C80197DF5C016EE2C80153DF0C
:102390008A0D9B1DC80FD91FC814D90461F7F70116
:1023A000458150E060E070E02AE0C80184DF8C0FD6
:1023B0009D1FDF91CF911F910F91FF90EF90DF90C4
:1023C000CF90BF90AF909F908F9008951F920F92E3
:1023D0000FB60F9211240BB60F922F933F934F938A
:1023E0005F936F937F938F939F93AF93BF93EF937D
:1023F000FF938EEE95E050DBFF91EF91BF91AF918F
:102400009F918F917F916F915F914F913F912F910C
:102410000F900BBE0F900FBE0F901F9018951F923C
:102420000F920FB60F9211240BB60F922F938F932A
:102430009F93EF93FF93E091FE05F091FF0580815C
:10244000E0910406F091050682FD12C09081809112
:1024500007068F5F8F7320910806821751F0E09175
:102460000706F0E0E251FA4F958F8093070601C00E
:102470008081FF91EF919F918F912F910F900BBED3
:102480000F900FBE0F901F90189580919305B7D5B0
:10249000892B41F480913304811104C0809132046E
:1024A000811113CC089581E08093320480919105CD
:1024B000883010F40C946F1B08950F931F93CF93E3
:1024C000DF93EC01CB018170992721E0822721E085
:1024D00028838C01060F171F19838170860F8A834A
:1024E0001B821C828091D1048E3D09F0FFCF809128
:1024F000470490914804A0914904B0914A04009780
:10250000A105B10509F4FFCF0197A105B10509F0B7
:1025100052C08CB5809340048DB5817080933F0488
:1025200080913E048CBD80913D04882319F08DB5C7
:10253000816002C08DB58E7F8DBD84E591E00E94E3
:102540002B0460E08091940583D561E070E080E029
:1025500090E00E94DD2464E070E0CE0192DB61E057
:1025600070E080E090E00E94DD24B8016F5F7F4F53
:10257000CE01049686DB82E090E0A0E0B0E080939C
:10258000470490934804A0934904B0934A0461E03F
:10259000809194055DD50E941A04809140048CBD01
:1025A00080913F04882319F08DB5816002C08DB5FC
:1025B0008E7F8DBD7BC0E0916A05F0916B0519950A
:1025C0008091470490914804A0914904B0914A0435
:1025D00082309105A105B105D9F783E090E0A0E034
:1025E000B0E08093470490934804A0934904B093CB
:1025F0004A04D0934C04C0934B040B5F1F4F1093BD
:102600004404009343048CB5809340048DB58170DD
:1026100080933F0480913E048CBD80913D048823CB
:1026200019F08DB5816002C08DB58E7F8DBD84E5BA
:1026300091E00E942B0460E08091940509D5E0911F
:102640006805F09169051995E0916605F0916705B7
:102650001995672B682B692B49F56091430470919C
:10266000440480914B0490914C040BDB82E090E099
:10267000A0E0B0E08093470490934804A0934904FD
:10268000B0934A0461E080919405E2D40E941A0458
:10269000809140048CBD80913F04882319F08DB552
:1026A000816002C08DB58E7F8DBD23DC8091470493
:1026B00090914804A0914904B0914A048230910558
:1026C000A105B105D9F760E070E0CB01DF91CF91B2
:1026D0001F910F910895643008F063E09091D10646
:1026E000691710F06FEF690FE62FF0E0E254F94F31
:1026F0009489682F690F60688EEB96E00C94202017
:10270000EF92FF920F931F93CF93DF93CDB7DEB776
:10271000C454D1090FB6F894DEBF0FBECDBF20E47C
:10272000E6E5F2E0DE01119601900D922A95E1F7BF
:1027300020918B06222309F464C0AB01BC01E09018
:102740005C05F0905D0584E2D70119968C9319978A
:102750001A961C921A971B961C921B971C961C92F9
:10276000C7010D960E945E04FC0184E18083118202
:102770001282138284E6848315821682178285E092
:1027800080871186128613868FEF84878FE1858775
:102790001686178648E85FEF6FEF7FEFCF01409610
:1027A0000E945E04FC0110821182128213828CE26C
:1027B000848381E08583168217828E010F5F1F4F0D
:1027C0003896CE018F5B9F4FD8012D918D012193BB
:1027D000A817B907C9F744E6B70183E090E00E9463
:1027E0003605B80183E090E00E944605F80140817B
:1027F00051816281738121E0452B462B472B09F0E3
:1028000020E0822FCC5BDF4F0FB6F894DEBF0FBE07
:10281000CDBFDF91CF911F910F91FF90EF90089561
:102820002F923F924F925F926F927F928F929F92E0
:10283000AF92BF92CF92DF92EF92FF920F931F93CE
:10284000CF93DF93CDB7DEB72E970FB6F894DEBFE8
:102850000FBECDBF6B877C878D879E874A0128017D
:102860003901CE0101961C0186E0F10111928A9591
:10287000E9F78FEF9FEFDC018F839887A987BA87ED
:1028800000915C0510915D058CE1F801818712864D
:1028900013861486B301A201C8010D960E945E043E
:1028A0004B855C856D857E850E945E04B301A20127
:1028B000405F5F4F6F4F7F4F0E945E04B601A501DE
:1028C0000E945E04FC0110821182F101DC0112966B
:1028D0001E0127E0220E311C21912D93E215F305F4
:1028E000D9F7FC013896D401AD014819590960E0C7
:1028F00070E044155505660577051CF48D918193AC
:10290000F3CFA114B104C104D10479F58CE18A0D8F
:10291000482F440DB80181E090E00E943605B101D6
:1029200081E090E00E9446056F81788589859A85CF
:1029300070935907609358072E960FB6F894DEBF30
:102940000FBECDBFDF91CF911F910F91FF90EF9000
:10295000DF90CF90BF90AF909F908F907F906F90BF
:102960005F904F903F902F900895E114F10471F221
:10297000D701AD014E195F0960E070E04A155B05B3
:102980006C057D051CF68D918193F3CFAB012091F1
:102990008B06222391F020918F0521FF0EC02091FC
:1029A0008F0522FF0AC0FC0101900020E9F7319752
:1029B000BF01681B790B0C94A70780E090E0089595
:1029C000CF92DF92EF92FF92CF93DF936C01990F3A
:1029D000EE08FF08F7FE14C06DE28EEE95E02BDCEA
:1029E000EC0144275527BA014C195D096E097F098E
:1029F0002AE08EEE95E05FDC7C01EC0EFD1E07C048
:102A00002AE0B701A6018EEE95E055DC7C0164E07A
:102A100073E08EEE95E03ADC8E0D9F1DDF91CF9135
:102A2000FF90EF90DF90CF900895FC01A081B181DD
:102A3000E5E9F5E044815581608171811296ED915F
:102A4000FC9113971994CF92DF92EF92FF920F931C
:102A50001F93CF93DF936B01770FEE08FF08F7FE0C
:102A600019C0EC016DE2E7DB8C0144275527BA0160
:102A70004C195D096E097F092AE0CE011CDC800F2C
:102A8000911FDF91CF911F910F91FF90EF90DF90F9
:102A9000CF9008952AE0B701A601DF91CF911F9151
:102AA0000F91FF90EF90DF90CF9005CC4F925F9207
:102AB0006F927F928F929F92CF92DF92EF92FF92CE
:102AC0000F931F93CF93DF932CE3C22ED12CE12CD5
:102AD000F12CA70196010E94582E60933404CA017C
:102AE000B901A70196010E94582E60933504CA01CE
:102AF000B90128E130E040E050E00E94582E290161
:102B00003A0160933604CA01B9016C5F7F4F8F4F61
:102B10009F4F27E030E040E050E00E94582E6F5F6A
:102B200060933704C12CD12C760120E004E610E03C
:102B300030E9832E99249394E22FF0E0EE54F84F7D
:102B4000EF01C370DD27209789F4CF01B8010E94FF
:102B5000452E892B31F4CF01B4010E94452E892BDB
:102B600029F48EE691E0A0E0B0E004C08DE691E0AB
:102B7000A0E0B0E0C80ED91EEA1EFB1ED701C601B8
:102B8000AA27BB27481659066A067B0610F02F5F56
:102B9000D3CF20933A04209799F4CF0164E670E0F4
:102BA0000E94452E892B39F4CF0160E971E00E9423
:102BB000452E892B29F48EE691E0A0E0B0E004C018
:102BC0008DE691E0A0E0B0E0C81AD90AEA0AFB0A53
:102BD000930182010C191D092E093F09CF0164E6FA
:102BE00070E00E94452E7C01CF0160E971E00E94F7
:102BF000452EE6E9F2E0A0E0A13041F4209751F43F
:102C0000E114F10429F4009729F402C0408103C0C3
:102C10004DE101C04CE150E060E070E004171507A1
:102C20002607370740F0041B150B260B370BAF5F49
:102C30003196AC3009F7AF5FA09339040F5F009372
:102C40003804DF91CF911F910F91FF90EF90DF90AB
:102C5000CF909F908F907F906F905F904F9008954E
:102C60008F929F92AF92BF92CF92DF92EF92FF929C
:102C70000F931F93CF93DF93CDB7DEB760970FB657
:102C8000F894DEBF0FBECDBF7A018901C0905C050C
:102C9000D0905D05AB01BC01C60109960E945E049F
:102CA000FC0184E180831182128213828483158265
:102CB000168217828087118612861386848715866E
:102CC0001686CF014096178641E050E060E070E044
:102CD0000115110519F040E050E0BA010E945E04B0
:102CE000E114F10431F0F701408151816281738177
:102CF00003C040E050E0BA010E945E0440E050E0B2
:102D0000BA010E945E0440E050E0BA010E945E04F5
:102D10000115110549F1F8014081518162817381EA
:102D20004115510561057105B1F484809580A68037
:102D3000B780F8E88F16F3E19F06A104B1045CF4B4
:102D400028E8822E23E1922EA12CB12CF801848256
:102D50009582A682B7820E945E04F8014481558163
:102D6000668177810E945E044CE2B60188E090E1C2
:102D70000E943605BE016F5F7F4F88E090E10E94A0
:102D8000460589819A81AB81BC81B7FD0DC0E114F4
:102D9000F10481F04D815E816F817885F701408378
:102DA00051836283738306C09093590780935807B9
:102DB0008FEF9FEF60960FB6F894DEBF0FBECDBFCA
:102DC000DF91CF911F910F91FF90EF90DF90CF9007
:102DD000BF90AF909F908F9008954F925F926F92A7
:102DE0007F92AF92BF92CF92DF92EF92FF920F93BA
:102DF0001F93CF93DF93CDB7DEB72C970FB6F89420
:102E0000DEBF0FBECDBF5A012801390100915C051C
:102E100010915D05AB01BC01C80109960E945E04DA
:102E2000B301A2010E945E04B701A6010E945E04E4
:102E30004CE0B80184E090E10E943605BE016F5F6E
:102E40007F4F84E090E10E9446058D819E81AF8195
:102E5000B885181619061A061B0644F481E090E09E
:102E60009093790580937805C5018FD48D819E81DB
:102E700090935907809358072C960FB6F894DEBFAD
:102E80000FBECDBFDF91CF911F910F91FF90EF90BB
:102E9000DF90CF90BF90AF907F906F905F904F90FA
:102EA0000895EF92FF920F931F93CF93DF9300D07B
:102EB0001F92CDB7DEB77A010FEF1FEF980109839C
:102EC0001A832B833C8300915C0510915D05AB0157
:102ED000BC01C80109960E945E04FC0188E0808361
:102EE0001182128213828483158216821782D7017F
:102EF0003896C7010896A817B90719F02D912193A4
:102F0000FACF44E1B80187E090E10E943605BE01A6
:102F10006F5F7F4F87E090E10E94460569817A816B
:102F20008B819C8170935907609358070F900F9085
:102F30000F900F90DF91CF911F910F91FF90EF9025
:102F400008958F929F92AF92BF92CF92DF92EF92AD
:102F5000FF920F931F93CF93DF9300D01F92CDB7B3
:102F6000DEB74B015C0169017A018FEF9FEFDC0155
:102F700089839A83AB83BC8300915C0510915D05C6
:102F800042E050E060E070E0C80109960E945E04F3
:102F9000B501A4010E945E04B701A6010E945E046F
:102FA0004CE0B80181E090E10E943605BE016F5F00
:102FB0007F4F81E090E10E94460569817A818B8193
:102FC0009C81709359076093580720E030E0A90175
:102FD0000E94650469817A818B819C810F900F909A
:102FE0000F900F90DF91CF911F910F91FF90EF9075
:102FF000DF90CF90BF90AF909F908F900895CF9328
:10300000DF93282F30E0F901EB54FC4F8491F90154
:10301000EB5EFB4FD491F901E55AFB4FC491CC23F1
:1030200091F081110E942624EC2FF0E0EE0FFF1F9B
:10303000E556FC4FA591B491EC91ED2381E090E031
:1030400021F480E002C080E090E0DF91CF9108950C
:103050001F93CF93DF93282F30E0F901EB54FC4FFF
:103060008491F901EB5EFB4FD491F901E55AFB4FD6
:10307000C491CC23C9F0162F81110E942624EC2F75
:10308000F0E0EE0FFF1FEF57FC4FA591B4918FB703
:10309000F894111105C09C91ED2FE095E92302C031
:1030A000EC91ED2BEC938FBFDF91CF911F910895A1
:1030B000CF92DF92EF92FF921F93CF93DF9300D0D6
:1030C0001F92CDB7DEB790919305923049F09330BF
:1030D00049F08EEE890F843038F487E1891B05C0F2
:1030E00080E003C081E001C08FEF8093910561E033
:1030F000809192050E947C2460E080919205A8DF77
:1031000064EF71E080E090E00E94DD2461E0809156
:1031100094050E947C2462E0809193050E947C24A7
:103120008CB5809340048DB5817080933F041FB7A8
:10313000F8948091D204811126C0E0E9F4E08491F2
:10314000EAE4F4E09491E82FF0E0EE0FFF1FE55081
:10315000FC4FA591B491EC91E92319F461E085E36A
:1031600077DF61E085E30E947C248CB580618CBDB3
:103170008CB580648CBD61E084E30E947C2461E0B6
:1031800083E30E947C248091D2048F5F8093D204D9
:103190001FBF8CB5837F84608CBD8CB58F7D8CBD4B
:1031A000809190059CB5282F23709C7F922B9CBD0D
:1031B0002DB582FB992790F9822F8E7F892B8DBDAB
:1031C0008CB580933E048DB5817080933D048091D1
:1031D00091052FB7F89490E088309105A8F4FC0190
:1031E0008827E658FF4F8F4F0C947A2E80E212C04A
:1031F00081E010C082E00EC084E00CC088E00AC00C
:1032000080E408C080E806C082E080933C0480E04F
:1032100001C080E190913B04892B80933B04809115
:103220003C04811103C081E080933C042FBF61E026
:10323000809194050DDF809140048CBD80913F0406
:10324000882319F08DB5816002C08DB58E7F8DBD4C
:103250008CE09EE090935F0580935E058CE19EE09C
:10326000909361058093600584E19EE090936305EF
:103270008093620583E59EE09093670580936605E1
:1032800089E79FE0909369058093680584E29EE05A
:1032900090936B0580936A058CE59EE090936D0595
:1032A00080936C0582EC93E09093650580936405B0
:1032B00081E08093820510927A0510927B0510922E
:1032C0007C0510927D0510927E0510927F0510926C
:1032D00080051092810510925705109256051092A4
:1032E0007305109272051092750510927405109274
:1032F0007705109276051092790510927805109254
:103300006E0510926F051092700510927105109263
:1033100059051092580510925B0510925A05AFE4BA
:10332000B4E0B0935D05A0935C0510924704109241
:1033300048041092490410924A0423ED34E083E8D3
:10334000F901982F11929A95E9F7FD0111928A954A
:10335000E9F78CE59CE0909342048093410410923D
:1033600044041092430410924C0410924B04309386
:103370004E0420934D0410924604109245048EEDA5
:10338000809355058093D104E0916805F09169051B
:103390001995E0916605F091670519956B017C011F
:1033A000E0916C05F0916D0581E01995CD28CE284E
:1033B000CF2809F477C0E0916605F091670519956B
:1033C000672B682B692BB9F760915C0570915D05DF
:1033D000FB01118641E080E090E40E94360560E048
:1033E00070E080E090E40E94460560915C05709179
:1033F0005D0540E08BE090E40E94360560E070E0FF
:103400008BE090E40E94460560E070E0CB01CCD4F4
:10341000E0915C05F0915D058FEF81871286138640
:103420001486CC24CA94DC2C7601C982DA82EB8221
:10343000FC8244E0BF0186E090E00E943605BE01B8
:103440006F5F7F4F86E090E00E94460511E0109389
:103450008205C982DA82EB82FC82E0905C05F09002
:103460005D0544E052E860E070E0C70109960E9403
:103470005E0444E0B70188E090E00E943605BE019A
:103480006F5F7F4F88E090E00E94460589819A81B6
:10349000AB81BC81892B8A2B8B2BB9F410938B06C3
:1034A00081E014C0E0916605F09167051995672BDE
:1034B000682B692BB9F3E0916605F09167051995C2
:1034C000672B682B692BB9F77FCF80E00F900F90A7
:1034D0000F900F90DF91CF911F91FF90EF90DF90B1
:1034E000CF9008958091BD0681110C94B8240C945E
:1034F0001525EF92FF920F931F93CF93DF93EC016B
:10350000623018F08F8588608F876B8B1C8A80E40F
:103510008D8B80E18E8B80E58F8B61E08C810E94AA
:103520007C248D818F3F19F061E00E947C2461E052
:103530008E810E947C247E0187E0E80EF11C00E071
:1035400010E08F8584FD03C084E090E002C088E035
:1035500090E0081719074CF461E0F70181917F01B1
:103560000E947C240F5F1F4FECCF8BE39DE00197FF
:10357000F1F760E08C816CDD60E08E8169DD8D812A
:103580008F3F11F060E064DD6F8564FD1DC063E076
:10359000CE010E94960C0BE416E4C8010197F1F7E6
:1035A00063E0CE010E94960CC8010197F1F763E039
:1035B000CE010E94960C83E592E00197F1F762E05C
:1035C000CE010E94960C13C06062CE0139D58BE407
:1035D00096E40197F1F76F856062CE0131D583E5FE
:1035E00092E00197F1F76F856062CE0129D56F8572
:1035F0006062CE0125D584E0888B6CE0CE0120D5B9
:10360000CE0120D582E0898B66E0CE01DF91CF919B
:103610001F910F91FF90EF9013C5462F50E060E08F
:1036200070E02AE00C945B11CF92DF92EF92FF9250
:103630006B017C012091EE063091EF0621153105DA
:10364000B1F16F2D772788279927C901E6DF6EE250
:103650008091EE069091EF060E941B11B70188271A
:1036600099278091EE069091EF06D7DF6EE2809168
:10367000EE069091EF060E941B1199278F2D7E2D4B
:103680006D2D8091EE069091EF06C7DF6EE280917E
:10369000EE069091EF060E941B116C2D8091EE06B4
:1036A0009091EF06FF90EF90DF90CF90B6CFFF9014
:1036B000EF90DF90CF900895CF93DF93BC018EEE13
:1036C00095E00E942211EC0164E073E08EEE95E03B
:1036D0000E9446118C0F9D1FDF91CF910895E82F16
:1036E000F0E0EE0FFF1FEC5FFD4F25E63EE031837B
:1036F000208390E08830910508F046C0FC018827BF
:10370000EE57FF4F8F4F0C947A2E809169008C7F7B
:10371000826080936900E89A089580916900837FB0
:10372000886080936900E99A0895809169008F7C90
:10373000806280936900EA9A0895809169008F738E
:10374000806880936900EB9A089580916A008C7F6D
:10375000826080936A00EC9A089580916A00837F6A
:10376000886080936A00ED9A089580916A008F7C4A
:10377000806280936A00EE9A089580916A008F7348
:10378000806880936A00EF9A08956F927F928F927B
:103790009F92AF92BF92CF92DF92EF92FF920F93E0
:1037A0001F93CF93DF9300D01F92CDB7DEB78C016C
:1037B000E12CF12C80E1B82E96E2A92E0E94451250
:1037C0008091580590915905892BC1F3C0905A05F5
:1037D000D0905B05F6018081843009F02AC261E057
:1037E00070E0C6010E94950A7C01C6010E94A10AF0
:1037F000672B682B692B09F010C23601F5E06F0EBC
:10380000711C48E0E41640E1F40608F076C086E05A
:10381000E81680E1F80608F002C1E2E0EE16FE06C6
:1038200009F4FDC000F54DE0E416F10480F488E0F1
:10383000E816F10408F0F3C0E1E0EE16F10408F434
:10384000ECC1F7E0EF16F10408F06CC1E8C04DE000
:10385000E416F10409F4DEC081E0E81682E0F8061F
:1038600009F4D8C0DAC1E3E0EE16E0E1FE0610F597
:10387000F1E0EF16F0E1FF0608F0D1C045E0E416F4
:1038800042E0F40608F4C6C087E0E81682E0F806D5
:1038900009F0C3C1F6018481F80181938F0160E0D2
:1038A00070E0C3010E94640AAB01BC01C8010E9420
:1038B0005E04B3C1E4E0EE16E0E1FE0609F4D9C00F
:1038C00008F40AC160E070E0C3010E94640AF801D4
:1038D000608371838283938364E070E0C3010E94FC
:1038E000640AF8016483758386839783085F1F4F9A
:1038F000F6013D96D8018B2D47C141E1E41640E128
:10390000F40609F487C008F04BC0EBE0EE16E0E1E6
:10391000FE0609F484C0A8F549E0E41640E1F40687
:1039200009F47DC008F0EFC060E070E0C3010E94C0
:10393000640AF801608371838283938364E070E09A
:10394000C3010E94640AF8016483758386839783A8
:1039500068E070E0C3010E94640AF8016087718723
:10396000828793874801FCE08F0E911C6CE070E029
:10397000C3010E94640AF801648775878687978768
:103980004BC1EFE0EE16E0E1FE0609F4A5C008F039
:1039900051C04DE0E41640E1F40609F46AC03DC1AF
:1039A00085E0E81680E2F80609F4F3C060F4F2E17D
:1039B000EF16F0E1FF0609F453C041E0E41640E2DF
:1039C000F40640F52AC18AE0E81680E2F80658F4C9
:1039D000E8E0EE16E0E2FE06E8F4F6E0EF16F0E2CC
:1039E000FF06C1F01AC14BE0E41640E4F40609F00A
:1039F00014C1F601858190E0909373058093720560
:103A000061E070E0C3010E94950A90937505809370
:103A1000740503C1F6018481F8018083FEC060E073
:103A200070E0C3010E94640AF8016083718382839D
:103A30009383F3C060E070E0C3010E94640AF80160
:103A400061937193819391934F0164E070E0C3019E
:103A50000E94640AF8016483758386839783DCC0BF
:103A600060E070E0C3010E94950AF80191838083B1
:103A7000D4C060E070E0C3010E94640AF801608372
:103A800071838283938364E070E0C3010E94640ABF
:103A9000F80164837583868397834801F8E08F0E6D
:103AA000911C68E070E0C3010E94640AF80160871D
:103AB0007187828793870485158526853785073C1E
:103AC0001F4F2F4F3F4F09F0A7C021E030E040E0EB
:103AD00050E00E946504A0C060E070E0C3010E9455
:103AE000640AF801608371838283938364E070E0E9
:103AF000C3010E94640AF8016483758386839783F7
:103B0000085F1F4F8AC0F6018481F8018483F601A3
:103B100085819681A781B085F80180839183A283F6
:103B2000B3837BC060E070E0C3010E94640AF801C7
:103B3000608371838283938364E070E0C3010E9499
:103B4000640AF801648375838683978368E070E074
:103B5000C3010E94950AA0E0B0E0F8018087918738
:103B6000A287B3876AE070E0C3010E94950AA0E0D3
:103B7000B0E0F80182879387A487B587045F1F4F61
:103B8000F6017196D8018A2D01900D928A95E1F780
:103B900044C0C801D8011496F30121913F01FC01F2
:103BA0002193CF01EA17FB07B9F7F6013996C60151
:103BB0000D9621912D93E817F907D9F7D80118969A
:103BC000C601419621912D93E817F907D9F7D8013D
:103BD0001C96C601459621912D93E817F907D9F750
:103BE000D8015096C601499621912D93E817F907FF
:103BF000D9F7D8015496C6014F9621912D93E81715
:103C0000F907D9F7D8015A96C601CF9621912D937D
:103C1000E817F907D9F701C0840180915605909102
:103C20005705E816F906D9F4109257051092560573
:103C300016C063E070E0C6010E94950AF601628139
:103C400070E0AC01461B570B6B5F7F4F6C0D7D1D09
:103C5000C8010E947E2F109279051092780510926B
:103C60005905109258050E945312F6018081843044
:103C700009F077C0E114F0E1FF0609F072C0198283
:103C80001A821B821C82F6018581823039F18330D1
:103C900009F445C0813009F064C0809160059091BD
:103CA0006105892B89F0E0916005F0916105CE01F5
:103CB00001961995009741F060915C0570915D0542
:103CC00029813A81AC0108C060915C0570915D0565
:103CD00020E030E040E050E081E041C080915E05AE
:103CE00090915F05892B89F0E0915E05F0915F0569
:103CF000CE0101961995009741F060915C05709195
:103D00005D0529813A81AC0108C060915C05709124
:103D10005D0520E030E040E050E082E020C080918E
:103D2000620590916305892B89F0E0916205F0911D
:103D30006305CE0101961995009741F060915C05ED
:103D400070915D0529813A81AC0108C060915C05E4
:103D500070915D0520E030E040E050E083E00E949B
:103D6000B1048091560590915705892B09F026CD15
:103D70008091780590917905892B09F01FCD80E01D
:103D800090E00F900F900F900F90DF91CF911F91C7
:103D90000F91FF90EF90DF90CF90BF90AF909F90EA
:103DA0008F907F906F9008950F931F93CF93DF9321
:103DB00000D01F92CDB7DEB7AB01BC018FEF9FEFF4
:103DC000DC0189839A83AB83BC8300915C051091ED
:103DD0005D05F801118612861386148615861686EF
:103DE0001786108AC80141960E945E044CE0B80113
:103DF00084E090E00E943605BE016F5F7F4F84E053
:103E000090E00E94460569817A818B819C810F90A8
:103E10000F900F900F90DF91CF911F910F91089508
:103E20000895E091C4038091C303E81730F4F0E0F3
:103E3000EB53FC4F808190E008958FEF9FEF089542
:103E40009091C4038091C303981750F4E92FF0E0D8
:103E5000EB53FC4F208130E09F5F9093C40302C07E
:103E60002FEF3FEFC90108958091C30390E02091A7
:103E7000C403821B9109089585ED8093BC00809155
:103E8000BC0084FDFCCF1092C20308954091160738
:103E9000262F30E0240F311D21323105DCF4209132
:103EA000C2032430C9F4FC0180E090E0861758F486
:103EB000309116072191DC01AC50B94FA30FB11D11
:103EC0002C930196F3CF80911607680F6093160725
:103ED00080E0089581E0089582E00895CF92DF9216
:103EE000EF92FF920F931F93CF93DF937C01262FC6
:103EF000972F8A018091E703882391F0C62FD72F4F
:103F00006E01C40ED51ECC15DD0569F06991D7018F
:103F1000ED91FC910190F081E02DC7011995F3CF4F
:103F2000642F822FB3DFC801DF91CF911F910F91D2
:103F3000FF90EF90DF90CF900895CF93DF931F9283
:103F4000CDB7DEB769832091E7032223D1F020911A
:103F5000E503203240F021E030E0FC01338322838E
:103F600080E090E014C08091E603E82FF0E0E45890
:103F7000FC4F998190838F5F8093E6038093E503E4
:103F800004C061E0CE01019681DF81E090E00F90F6
:103F9000DF91CF910895CF92DF92EF92FF920F932E
:103FA0001F93CF93DF93EC01F62E642F8C8150D8B2
:103FB0008D818F3F11F060E04BD88F850F2D10E081
:103FC00084FF24C06E0187E0C80ED11CE12CF12CC7
:103FD000B8010E2C02C0759567950A94E2F76170DE
:103FE000F60181916F0134D8FFEFEF1AFF0A88E0E4
:103FF000E816F10469F7CE01DF91CF911F910F917F
:10400000FF90EF90DF90CF900C94800CB80184E08B
:10401000759567958A95E1F7CE010E94960C6F2DF4
:10402000CE01DF91CF911F910F91FF90EF90DF9024
:10403000CF900C94960C41E0AEDF81E090E00895C3
:1040400040E0A9CF61E0FCDF8BE39FE10197F1F74E
:10405000089560934B0770934C0780934D0790939E
:104060004E07DC01CB01845D9E4FAF4FBF4F809365
:10407000470790934807A0934907B0934A0782E007
:1040800090E09093460780934507CFD46093410713
:104090007093420780934307909344070895CF920B
:1040A000DF92EF92FF920F931F93BFD4C09041070E
:1040B000D0904207E0904307F09044078B019C01A9
:1040C0000C191D092E093F0980914B0790914C074F
:1040D000A0914D07B0914E07083E134021053105D0
:1040E000D0F00196A11DB11D80934B0790934C0712
:1040F000A0934D07B0934E07B701A60148515C4FFE
:104100006F4F7F4F4093410750934207609343079F
:1041100070934407CACF4091470750914807609178
:10412000490770914A0784179507A607B70780F1DA
:10413000E0913F07F0914007309751F119956115D3
:1041400071058105910511F084DF22C080914B0734
:1041500090914C07A0914D07B0914E07845D9E4F02
:10416000AF4FBF4F8093470790934807A0934907ED
:10417000B0934A0781E090E02091450730914607CF
:10418000232B11F480E090E090934607809345073D
:1041900060914B0770914C0780914D0790914E07AD
:1041A0001F910F91FF90EF90DF90CF900895CF92E5
:1041B000DF92EF92FF9273DF6B017C0180913B07EE
:1041C00090913C07A0913D07B0913E07C816D906D3
:1041D000EA06FB0661F0C701B6010E945615C092BF
:1041E0003B07D0923C07E0923D07F0923E0780915A
:1041F000350490E0FF90EF90DF90CF900895CF923C
:10420000DF92EF92FF924BDF6B017C0180913B07C5
:1042100090913C07A0913D07B0913E07C816D90682
:10422000EA06FB0661F0C701B6010E945615C0926E
:104230003B07D0923C07E0923D07F0923E07809109
:10424000360490E0FF90EF90DF90CF9008951F929A
:104250000F920FB60F9211240BB60F922F933F932C
:104260004F935F936F937F938F939F93AF93BF937E
:10427000EF93FF938091B900887F803609F49CC04A
:1042800068F5883209F45BC090F4803109F454C0B9
:1042900038F4882309F4F6C0883009F44DC0F5C01D
:1042A000883109F44CC0803209F45DC0EEC080341E
:1042B00009F468C048F4803309F455C0883309F024
:1042C000E4C08093C003D8C0803509F44FC088355E
:1042D00009F45DC0883409F0D8C0D6C0883909F423
:1042E000C7C0A8F4883709F467C038F4883609F4E1
:1042F00063C0803709F460C0C8C0883809F4B8C00A
:10430000803909F45FC0803809F0BFC05BC0803BD2
:1043100009F486C038F4803A09F466C0883A09F492
:104320007FC0B3C0803C09F4A7C0883C09F4A4C096
:10433000883B09F48AC0A9C08091BD0310C0909148
:10434000BF038091BE03981770F5E091BF0381E031
:104350008E0F8093BF03F0E0E456FC4F8081809382
:10436000BB0085EC86C08093C0038EC0E091BF0384
:1043700081E08E0F8093BF038091BB00F0E0E45694
:10438000FC4F80839091BF038091BE036EC0E0918B
:10439000BF0381E08E0F8093BF038091BB00F0E0EC
:1043A000E456FC4F80838091C10381116DC081E090
:1043B0008093BC0384EA61C083E08093C2031092BF
:1043C0003A07CFCF80913A07803208F051C0E09190
:1043D0003A0781E08E0F80933A078091BB00F0E0AE
:1043E000E65EF84F8083BDCF85EC8093BC001092D1
:1043F000C20380913A07803230F4E0913A07F0E04E
:10440000E65EF84F108260913A0770E0E09118077D
:10441000F09119078AE197E0199510923A0735C093
:1044200084E08093C2031092170710921607E09160
:104430001407F0911507199580911607811105C091
:1044400081E0809316071092F406E091170781E04F
:104450008E0F80931707F0E0EC50F94F8081809326
:10446000BB009091170780911607981708F479CF31
:1044700085E88093BC0009C085EC8093BC00109255
:10448000C20303C01092C003F7DCFF91EF91BF910C
:10449000AF919F918F917F916F915F914F913F91DC
:1044A0002F910F900BBE0F900FBE0F901F9018957D
:1044B0008F929F92AF92BF92CF92DF92EF92FF9234
:1044C0000F931F93CF93DF93CDB7DEB7C356D109B8
:1044D0000FB6F894DEBF0FBECDBF8C01B09078034D
:1044E000A090790390907A0380907B0326E030E0DF
:1044F00040E050E061E070E080E090E00E94A117B1
:104500006B017C016F3F2FEF72078207920721F149
:10451000FB01E450FC4F1082FE01EC5AFF4F80E19A
:10452000DF011D928A95E9F782E090E09183808314
:1045300080E5838384829582A682B782AF01C7011A
:10454000B6010E9451176F3F7F4F8F4F9F4F49F425
:10455000C701B6010E946808CE0101960E94450479
:104560001BC01C821B8288EE93E0A0E0B0E08D832C
:104570009E83AF83B8878CE392E09A8389836496A5
:10458000CCAEDDAEEEAEFFAE649760961FAE1EAE53
:1045900060972E961FAE2E9783E995E08DD8CE01B9
:1045A00001960E94BB09882309F48BC089E895E035
:1045B00083D86FE775E0CE0101960E94EA066EEEA1
:1045C00072E0CE0101960E94C30666E775E0CE0157
:1045D00001960E94EA06B801CE0101960E942315B9
:1045E00061E575E0CE0101960E94EA066EE173E096
:1045F000CE0101960E94C3066EE375E0CE010196DE
:104600000E94EA064091990550919A0560E070E099
:104610002AE0CE0101960E945B1161E175E0CE01B6
:1046200001960E94EA06CE0101960E9415156CE0E3
:1046300075E0CE0101960E94221162E773E08EEED2
:1046400095E00E9446118EEE95E00E9415158DEFC3
:1046500094E032D8CE0101960E94BB09882369F10B
:10466000E4D1C0908C06D0908D06E0908E06F0903C
:104670008F06DC01CB018C199D09AE09BF09883B6F
:104680009B40A105B105C8F4CE0101960E943103FB
:10469000892B01F3CE0101960E945709682F8EEEF7
:1046A00095E00E941B11C1D160938C0670938D061A
:1046B00080938E0690938F06E7CFCE0101960E94DD
:1046C000DF08CD59DF4F0FB6F894DEBF0FBECDBF68
:1046D000DF91CF911F910F91FF90EF90DF90CF90DE
:1046E000BF90AF909F908F9008954F925F926F927E
:1046F0007F928F929F92AF92BF92CF92DF92EF9272
:10470000FF921F93CF93DF93CDB7DEB7C254D10989
:104710000FB6F894DEBF0FBECDBF10918B061111FE
:1047200006C088ED94E00E945C1B10E077C0809189
:104730008F0581FFF6CF80918F0582FFF2CF6091C8
:104740005C0570915D0540E085E090E20E943605D1
:10475000BE016F5F7F4F85E090E20E9446058C812D
:104760008823F9F289819A81AB81BC818BAF9CAFA0
:10477000ADAFBEAF4D805E806F80788489849A84AF
:10478000AB84BC84CD84DE84EF84F88889899A89DF
:10479000AB89BC8923968CAF9DAFAEAFBFAF2397DB
:1047A0006DEC74E08EEE95E00E9422116BAD7CAD55
:1047B0008DAD9EAD0E94141B62EC74E08EEE95E010
:1047C0000E942211C301B2010E94141B67EB74E026
:1047D0008EEE95E00E942211C501B4010E94141BC7
:1047E0006CEA74E08EEE95E00E942211C701B601DA
:1047F0000E94141B61EA74E08EEE95E00E94221183
:1048000023966CAD7DAD8EAD9FAD23970E94141B9A
:1048100064E073E08EEE95E00E944611812FCE5B3E
:10482000DF4F0FB6F894DEBF0FBECDBFDF91CF9143
:104830001F91FF90EF90DF90CF90BF90AF909F902F
:104840008F907F906F905F904F90089590E0FC0163
:104850003197E231F10508F04EC08827E657FF4F47
:104860008F4F0C947A2E809180008F7703C08091B7
:1048700080008F7D80938000089580918000877FE5
:10488000F9CF84B58F7702C084B58F7D84BD08953C
:104890008091B0008F7703C08091B0008F7D8093AE
:1048A000B0000895809190008F7707C080919000AC
:1048B0008F7D03C080919000877F80939000089542
:1048C0008091A0008F7707C08091A0008F7D03C0EA
:1048D0008091A000877F8093A0000895809120019F
:1048E0008F7707C0809120018F7D03C080912001C8
:1048F000877F809320010895CF93DF9390E0FC01A0
:10490000EB5EFB4F2491FC01E55AFB4F8491882319
:1049100061F190E0880F991FFC01E550FC4FC591B3
:10492000D491FC01EF57FC4FA591B491611109C0DE
:104930009FB7F8948881209582238883EC912E2359
:104940000BC0623061F49FB7F8943881822F809554
:1049500083238883EC912E2B2C939FBF06C08FB7A7
:10496000F894E8812E2B28838FBFDF91CF91089593
:104970003FB7F8948091540790915507A09156073E
:10498000B091570726B5A89B05C02F3F19F0019697
:10499000A11DB11D3FBFBA2FA92F982F8827820FC5
:1049A000911DA11DB11DBC01CD0142E0660F771F15
:1049B000881F991F4A95D1F708958F929F92AF92C1
:1049C000BF92CF92DF92EF92FF926B017C01D0DF1A
:1049D0004B015C01C114D104E104F104E9F0C8DF2A
:1049E000DC01CB0188199909AA09BB09883E9340CB
:1049F000A105B10578F321E0C21AD108E108F10858
:104A000088EE880E83E0981EA11CB11CC114D1044D
:104A1000E104F10421F7DECFFF90EF90DF90CF901B
:104A2000BF90AF909F908F9008952FB7F8946091AA
:104A300050077091510780915207909153072FBFF3
:104A400008951F920F920FB60F9211242F933F9348
:104A50008F939F93AF93BF9380915007909151078D
:104A6000A0915207B091530730914F0723E0230FD5
:104A70002D3720F40196A11DB11D05C026E8230F96
:104A80000296A11DB11D20934F078093500790936C
:104A90005107A0935207B093530780915407909108
:104AA0005507A0915607B09157070196A11DB11D5A
:104AB0008093540790935507A0935607B0935707D8
:104AC000BF91AF919F918F913F912F910F900FBE0A
:104AD0000F901F901895CF93DF93CDB7DEB7CC56CC
:104AE000D1090FB6F894DEBF0FBECDBF789484B560
:104AF000826084BD84B5816084BD85B5826085BDDA
:104B000085B5816085BD80916E00816080936E0067
:104B10001092810080918100826080938100809159
:104B2000810081608093810080918000816080930A
:104B300080008091B10084608093B1008091B000CA
:104B400081608093B0008091910082608093910099
:104B500080919100816080939100809190008160AC
:104B6000809390008091A10082608093A100809149
:104B7000A10081608093A1008091A000816080935A
:104B8000A000809121018260809321018091210108
:104B900081608093210180912001816080932001B8
:104BA00080917A00846080937A0080917A0082609C
:104BB00080937A0080917A00816080937A0080915E
:104BC0007A00806880937A001092C10062E08EEBD8
:104BD00096E00E94791A60E080E00E946B1367E122
:104BE00072E08EEB96E00E942211E091FE05F091BA
:104BF000FF0582E08083E091FA05F091FB051082C9
:104C0000E091FC05F091FD0580E18083109206069D
:104C1000E0910206F091030686E08083E0910006B1
:104C2000F0910106808180618083E0910006F0911F
:104C30000106808188608083E0910006F091010682
:104C4000808180688083E0910006F0910106808178
:104C50008F7D80831092C4031092C3031092E603E9
:104C60001092E5031092C20381E08093C103109279
:104C7000BC0361E084E10E94281861E085E10E94A4
:104C800028188091B9008E7F8093B9008091B90077
:104C90008D7F8093B90088E48093B80085E4809389
:104CA000BC008BE092E00E945C1B8CE291E0A0E0F3
:104CB000B0E08093B0069093B106A093B206B09393
:104CC000B3068093B4069093B506A093B606B0934E
:104CD000B7061092B9060E94721A6093A4067093E8
:104CE000A5068093A6069093A7061092B906109287
:104CF000BA068091BC06882341F01092B00610924B
:104D0000B1061092B2061092B30660E086E3F4DDBD
:104D100060E086E0F1DD60E087E0EEDD8EEB96E0BE
:104D200091D960E080E00E946B136DEF71E08EEB33
:104D300096E00E94221180EE91E00E945C1B80911F
:104D40008B06882329F044244A94542C320135C020
:104D50000E9458188111F7CF8CEA91E00E945C1BE9
:104D6000FFCFC3DC8111EAC080918B068823D1F08C
:104D700049825A826B827C8260915C0570915D05EC
:104D800040E082E090E00E943605BE016F5F7F4FF9
:104D900082E090E00E94460589819A8190935907AC
:104DA0008093580768E873E180E090E006DE809128
:104DB0008B06811102C00E94581861E971E08EEEE5
:104DC00095E00E9422116BEF72E08EEE95E00E945A
:104DD000461164E073E08EEE95E00E9446118EEB82
:104DE00096E030D960E080E00E946B1363E871E0E8
:104DF0008EEB96E00E94221161E080E00E946B132E
:104E00006BEF72E08EEB96E00E94461180918B066C
:104E1000882309F424C60E94451260EA7FE080E0FE
:104E200090E00E94801364E971E180E090E0C5DDCC
:104E300060E070E0CB010E94801380918B06882394
:104E4000B9F160E070E0CB010E94D41E672B682BA3
:104E5000692B71F564EF71E080E090E0AEDDFCE07D
:104E6000AF2EB12CC12CD12CA7E0EA2EA3E0FA2E54
:104E700008E010E020E030E04BEF52E063E070E04B
:104E800080E090E00E941014672B682B692B81F45E
:104E900008EE13E080918F0581FD0AC00E94451243
:104EA0006AE070E080E090E088DD0150110991F740
:104EB00080918F0581FFAFCF80E691E00E945C1B5F
:104EC0008EEB96E0BFD860E080E00E946B1365E552
:104ED00071E08EEB96E00E94221188E491E00E943E
:104EE0005C1B8EEB96E0AED860E080E00E946B1316
:104EF00068E371E08EEB96E00E94221180918F05AD
:104F000082FF09C0AE014F5F5F4F69E070E084E14E
:104F100093E00E94A70780918F0582FD06C064E69A
:104F200070E080E090E049DDE9CFDFDB811119CF4F
:104F300068EE73E080E090E040DDF7CF10927803F8
:104F40001092790310927A0310927B036091780398
:104F50007091790380917A0390917B0361157105BB
:104F60008105910561F468E773E08EE193E00E94AA
:104F7000C61464EF71E080E090E01FDDE7CF0E948F
:104F8000141B64E073E08EEE95E00E9446118EEBF8
:104F900096E058D87E0124E5E20EF11C8E010F5FE9
:104FA0001F4FC8018E559740AC969FAF8EAFAC9700
:104FB0008091F8039091F903A091FA03B091FB035B
:104FC0000097A105B10509F063C169EC72E08EEEAE
:104FD00095E00E9422118EEB96E034D860E080E0EC
:104FE0000E946B1361EB72E08EEB96E00E9422113F
:104FF000BE016C597F4F89E293E00E94C614892B51
:1050000021F4812C912C540119C186E992E00E946F
:105010005C1B8EEB96E016D860E080E00E946B137C
:1050200064E872E08EEB96E00E942211FEDC2B0118
:105030003C01A596DFACA597A696CFACA697A79600
:105040003FACA797A8962FACA89721E130E040E0AD
:1050500050E062E070E080E090E00E94A1174B0118
:105060005C019FEF89169906A906B90641F1D7019F
:10507000E0E11D92EA95E9F7E2E0F0E0D701119650
:10508000FC93EE93FBE71396FC93139714962C92E4
:10509000149715963C9215971696CC9216971796DC
:1050A000DC92A701C501B4010E9451176F3F7F4FE9
:1050B0008F4F9F4F41F4C501B4010E946808C80199
:1050C0000E9445040DC064968CAE9DAEAEAEBFAEE0
:1050D000649760961FAE1EAE60972E961FAE2E97F9
:1050E00064968CAD9DADAEADBFAD64978093EA057F
:1050F0009093EB05A093EC05B093ED0560968EAD13
:105100009FAD60979093E9058093E8052E968FAD4B
:105110002E978093E705FE013D96A7EAB5E080E46F
:1051200001900D928A95E1F78BE995E00E94BB0909
:1051300081110DC07ADCDC01CB0184199509A60927
:10514000B70988399A43A105B10508F472CF8BE9F4
:1051500095E00E94BB09882309F453CF65E672E00D
:105160008EEE95E00E9422118EEB96E00E942220A6
:1051700060E080E00E946B1362E572E08EEB96E0E7
:105180000E942211E0E3DE2ED801ED2D1D92EA955A
:10519000E9F744E050E06EE472E0C801ECD744E087
:1051A00050E06AE472E0CE010D96E5D740E350E0AE
:1051B000B8018BE995E00E948A0763E372E08EEE06
:1051C00095E00E942211D8011D92DA94E9F72DDCB6
:1051D0004B015C018BE995E00E943103892B09F4B6
:1051E00051C48BE995E00E943103892B09F459C41D
:1051F00040E350E0B8018BE995E00E94130389A5D4
:105200008AA4912CA12CB12C540199248824B82A69
:105210008CA5882A8BA5982AF0E88F1AFEE79F0AAA
:10522000FAEAAF0AF3E8BF0A6EE272E08EEE95E0AA
:105230000E9422118BE995E00E94DF086AE272E089
:105240008EEE95E00E94221181149104A104B10414
:1052500021F484E292E00E945C1B81149104A10479
:10526000B10409F18092F4039092F503A092F60341
:10527000B092F703DADB6093F0037093F10380934D
:10528000F2039093F3038FEF93EEA7E5B0E003C032
:105290000197A109B1098093F8039093F903A093B2
:1052A000FA03B093FB031092BB068091B9068111FB
:1052B0007FC08091BA0681117BC00E94721AAB0137
:1052C000BC014093A8065093A9066093AA06709368
:1052D000AB068091AC069091AD06A091AE06B09160
:1052E000AF064A015B01881A990AAA0ABB0A809193
:1052F000900690919106A0919206B0919306881520
:105300009905AA05BB0508F053C02091BC06809101
:10531000B0069091B106A091B206B091B3062223D7
:1053200021F00196A11DB11D03C00197A109B1098A
:105330008093B0069093B106A093B206B093B306E3
:1053400081E08093BB068091B0069091B106A09158
:10535000B206B091B306211106C00097A105B105B0
:1053600009F4A3C30FC08090A0069090A106A0905E
:10537000A206B090A30688159905AA05BB0508F0FA
:1053800094C30EC08090A0069090A106A090A206A3
:10539000B090A30688169906AA06BB0608F085C336
:1053A0004093AC065093AD066093AE067093AF0683
:1053B00081E08093E7038093E8031092E603109264
:1053C000E50361E083E895E00E949D1F6AE070E0DC
:1053D00080E090E0F2DA8091C2038111FCCF81E09D
:1053E0008093C2038093C1039FEF9093C0031092F8
:1053F000BF038093BE038093BD038091BD03826091
:105400008093BD038091BC03813061F41092BC0392
:105410008091BD038093BB008091BC0083FDF8CFD9
:1054200085EC01C085EE8093BC008091C203813081
:10543000E1F38091BF03823018F42091BF0301C0D3
:1054400022E06CE9862E63E0962E85EC93E0FC0169
:10545000D4013E2F381B321718F43D913193F9CF08
:105460001092C4032093C303A22EB12CB5018EEE7B
:1054700095E0AD962FAFAD970E942315AD962FAD59
:10548000AD97223041F583E895E00E94201FD82E89
:1054900083E895E00E94201FAA96DFAEAA97A996FE
:1054A0001FAEA997AA96AEADBFADAA978A2B9B2B2C
:1054B0009093EA038093E90366E373E08EEE95E050
:1054C0000E9446116091E9037091EA038EEE95E027
:1054D0000E94231509C06DED72E08EEE95E00E94EA
:1054E0002211C5010E94E0149091E5038091E80328
:1054F000913208F045C02091C2032111FCCF22E077
:105500002093C20321E02093C1032FEF2093C00317
:105510001092BF039093BE03ACE7B3E0ECE9F3E075
:105520002E2F2819291718F42D912193F9CF1092B5
:10553000BD039091BD03880F892B8093BD0380919B
:10554000BC03813061F41092BC038091BD03809351
:10555000BB008091BC0083FDF8CF85EC01C085EED7
:105560008093BC008091C2038230E1F38091C0033C
:105570008F3F31F08091C003803211F08091C003E1
:105580001092E6031092E5031092E70369ED72E0D2
:105590008EEE95E00E9422118091E9038093EF0343
:1055A0008091BC0681110CC08091B0069091B1062B
:1055B000A091B206B091B306892B8A2B8B2B81F573
:1055C00041E250E06AE373E085E995E00E94830FD1
:1055D0008DE090E00E9458228EE090E00E945822D8
:1055E00081E090E00E9458228EE190E0A0E0B0E0DF
:1055F0008093B0069093B106A093B206B093B30621
:105600008093B4069093B506A093B606B093B70600
:1056100081E08093B9061092EE031092ED039EC0D4
:1056200044E5C42E42E0D42E5CE2852E9924939466
:10563000A12CB12C77247394F60181916F010E9403
:10564000FF17682E8093EC03F1E08F1339C080912F
:10565000EE03811137C08091ED0381111CC06BE610
:1056600073E08EEE95E00E94221145E150E06CE57A
:1056700073E085E995E00E94830F8DE090E00E9441
:1056800058228EE090E00E94582281E090E00E9433
:1056900058226092ED038092B0069092B106A092DB
:1056A000B206B092B3068092B4069092B506A0926C
:1056B000B606B092B7061092B9067092EE0302C019
:1056C0001092EE0326E5C21622E0D20609F0B4CF0E
:1056D0008091EF038F3F09F03FC08091EE0381116D
:1056E0003DC08091ED0381111DC045E150E06CE5A6
:1056F00073E085E995E00E94830F64E573E08EEE28
:1057000095E00E9422118DE090E00E9458228EE0E8
:1057100090E00E94582281E090E00E94582281E0AF
:105720008093ED038CE291E0A0E0B0E08093B006BE
:105730009093B106A093B206B093B3068093B406DB
:105740009093B506A093B606B093B7061092B9062B
:1057500081E08093EE0302C01092EE038090F40388
:105760009090F503A090F603B090F7035ED94090B7
:10577000F0035090F1036090F2037090F30364190A
:1057800075098609970928EE33E040E050E090D291
:10579000CA01B901680D791D8A1D9B1D0E9429202F
:1057A0000E94FF20059724F40E94FF208D5E03C015
:1057B0000E94FF2085508093EB0360E080E00E9410
:1057C0006B138091EB038A3030F468E373E08EEB67
:1057D00096E00E9422116091EB038EEB96E00E940E
:1057E0000D1B66E373E08EEB96E00E9422110E948F
:1057F000D7200A9734F464E373E08EEB96E00E94BE
:1058000022110E94D720BC018EEB96E00E94231546
:105810008091EB038C3018F461E373E002C06EE218
:1058200073E08EEB96E00E94221161E080E00E941E
:105830006B136091B0067091B1068091B2069091A1
:10584000B3063CE3832E912CA12CB12CA50194012D
:105850002FD2CA01B901A50194012AD2AB01BC0122
:105860002AE08EEB96E00E945B116CE273E08EEB17
:1058700096E00E9422116091B0067091B10680916D
:10588000B2069091B306A501940112D26A30710557
:105890008105910530F46AE273E08EEB96E00E9498
:1058A00022116091B0067091B1068091B20690917C
:1058B000B3062CE330E040E050E0FAD1AB01BC018C
:1058C0002AE08EEB96E00E945B1160E087E00E9488
:1058D0006B1367E273E08EEB96E00E94221160E0AA
:1058E00089E00E946B1362E273E08EEB96E00E9407
:1058F00022118091EE03813019F46EE173E002C051
:105900006AE173E08EEB96E00E94221160918F05B0
:105910006695617070E08EEE95E00E94231560E55B
:1059200073E08EEE95E00E9422116091B0067091B6
:10593000B1068091B2069091B3062CE3822E912C91
:10594000A12CB12CA5019401B3D1CA01B901A501C3
:105950009401AED1AB01BC012AE08EEE95E00E942D
:105960005B116EE473E08EEE95E00E94221160916F
:10597000B0067091B1068091B2069091B306A50170
:10598000940196D1AB01BC012AE08EEE95E00E9415
:105990005B116AE473E08EEE95E00E942211609143
:1059A000EF038EEE95E00E940D1B66E473E08EEE31
:1059B00095E00E9422118EEE95E00E94151562E49A
:1059C00073E08EEE95E00E9422116091EC038EEE62
:1059D00095E00E940D1B6EE373E08EEE95E00E9451
:1059E00022116091EF038EEE95E00E940D1B6091F5
:1059F000EE038EEE95E00E940D1B6AE373E08EEEDF
:105A000095E00E94221180915A0790915B070097C0
:105A100029F4AC968EAD9FADAC9718C0A801481B79
:105A2000590BE0915C07F0915D0780E090E03097C2
:105A300059F09C012E5F3F4F80819181820F931F0F
:105A40000280F381E02DF3CF840F951F9A83898321
:105A500089819A810E94E0140E94D40DA9CA8BE723
:105A600091E00E945C1B8EEB96E00E94222060E099
:105A700080E00E946B136BE671E08EEB96E00E9473
:105A80002211FFCF0E941525DC01CB01881999094D
:105A9000AA09BB0988399A43A105B10508F49ACB34
:105AA000A0CB812C912C5401C5CB81E08093B90609
:105AB00077CCEF92FF920F931F93CF93DF93ECED90
:105AC000F6E086EE92E09183808312821382148244
:105AD0001582CEEED5E01B821A8248EE53E060E0DC
